:020000040800F2
:10000000F806002091010008990100089B010008F2
:100010009D0100089F010008A101000800000000E8
:10002000000000000000000000000000A301000824
:10003000A501000800000000A7010008A9010008B0
:10004000AB010008AB010008AB010008AB010008E0
:10005000AB010008AB0100081D0600087D06000882
:10006000AB010008AB010008AB010008AB010008C0
:10007000AB010008AB010008AB010008AB010008B0
:10008000AB010008AB010008AB010008AB010008A0
:10009000AB010008AB010008AB010008AB01000890
:1000A000AB010008AB010008AB010008AB01000880
:1000B000AB010008AB01000800000000AB01000824
:1000C000AB0100080000000000000000AB010008C8
:1000D00000000000AB010008AB01000800000000B8
:1000E000AB010008AB010008AB01000800F002F80A
:1000F00000F03FF80AA090E8000C82448344AAF183
:100100000107DA4501D100F034F8AFF2090EBAE880
:100110000F0013F0010F18BFFB1A43F0010318473B
:10012000E421000004220000103A24BF78C878C1FE
:10013000FAD8520724BF30C830C144BF04680C60ED
:10014000704700000023002400250026103A28BF35
:1001500078C1FBD8520728BF30C148BF0B60704739
:10016000642900F07D80002070471FB51FBD10B5C9
:1001700010BD00F03FF91146FFF7F7FF01F046F818
:1001800000F05DF903B4FFF7F2FF03BC00F060F983
:100190000948804709480047FEE7FEE7FEE7FEE71B
:1001A000FEE7FEE7FEE7FEE7FEE7FEE70448054957
:1001B000054A064B70470000650E0008ED00000878
:1001C000F8000020F8060020F8020020F8020020C5
:1001D0000FB41CB5074B06AA7B44694600900598EE
:1001E00000F0E7F80020694600F0F6F81CBC5DF866
:1001F00014FB0000FD0100002DE9F0410E4604460D
:10020000002020622046E168884730B3252805D0C9
:10021000D4E901219047206A401CF2E7E1682046BA
:1002200000278847050018D0A5F14100192802D8F9
:1002300020354FF400673246294620462760FFF7F5
:100240008FFF40B1012804D0F61D26F007060836BE
:10025000D8E7361DD6E72846DAE7206ABDE8F08100
:100260002DE9F0410646002410687529314616A58F
:1002700010D0AFF30080002802DA404213A507E057
:1002800031688A0701D512A502E0490704D511A5F6
:10029000012401E0AFF3008000210A2206F12407C7
:1002A00009E0B0FBF2FCB0FBF2F302FB1C003030C3
:1002B00078541846491C0028F3D123462A46304674
:1002C000BDE8F04100F016B8000000002D0000006D
:1002D0002B0000002000000070477047704710B5E9
:1002E00000F080F8006810BD10B5044600F07AF800
:1002F000046010BD2DE9F0470D469946924604462C
:1003000000F124080168880604D5E06921F0100195
:10031000216000E00120A84201DD471B00E000272A
:10032000A1697A1902EB0900081AA0612078C006B9
:1003300002D42046AFF30080002608E0D4E9012172
:100340001AF806009047206A401C761C20624E4531
:10035000F4DB2078C0060AD52046AFF3008006E023
:10036000D4E9012130209047206A401C2062381EC9
:10037000A7F10107F4DC07E0D4E9012118F8050032
:100380009047206A401C2062281EA5F10105F3DC7D
:100390002046AFF300802078000602D50220BDE899
:1003A000F0870120FBE7000001694A1C0261087820
:1003B000704700B58FB0CDE90131002105910549A5
:1003C0007944CDE9031011466846FFF715FF0FB0D9
:1003D00000BD0000E5FFFFFF0A6802F8010B0A609C
:1003E00070470000004870479800002000487047A0
:1003F000980000207546FFF7F9FFAE4605006946F4
:10040000534620F00700854618B020B5FFF7CEFE12
:10041000BDE820404FF000064FF000074FF0000805
:100420004FF0000B21F00701AC46ACE8C009ACE886
:10043000C009ACE8C009ACE8C0098D46704710B5EA
:100440000446AFF300802046BDE81040FFF79ABE97
:1004500001491820ABBEFEE72600020070470000ED
:100460002DE9F0413B21D02000F06AF830490870B6
:100470003C21D02000F064F82D49487008464078AF
:10048000097840EA01202B4908800846008801F0DD
:10049000E7FA06460022284B01F08AF9044601F0EB
:1004A00055F9264908603D21D02000F049F820493F
:1004B00088703E21D02000F043F81D49C8700846DE
:1004C000C078897840EA01201A49088008460088E7
:1004D00001F0C6FA06460022174B01F069F90446FE
:1004E00001F034F9154948603F21D02000F028F888
:1004F0000F4908714021D02000F022F80C494871C2
:1005000008464079097940EA01200A4908800846EE
:10051000008801F0A5FA06460022074B01F048F9D1
:10052000044601F013F9054988600846BDE8F081EA
:100530005E000020660000200000D04088000020FF
:1005400070B504460D4600F0BDFD204600F0E1FD0B
:1005500018B900F0CDFD002070BD284600F0D9FD8F
:1005600018B900F0C5FD0020F6E700F0ABFD611CF6
:10057000C8B200F0CEFD18B900F0BAFD0020EBE7DC
:10058000002000F057FD064600F0B2FD3046E3E7DC
:1005900070B506460C46154600F094FD304600F056
:1005A000B8FD18B900F0A4FD002070BD204600F091
:1005B000B0FD18B900F09CFD0020F6E7284600F0D9
:1005C000A8FD18B900F094FD0020EEE700F090FDC2
:1005D000052000F01AF80120E7E710B5012188078F
:1005E00000F070FC00214FF0804000F07AFC00BF6A
:1005F0004FF0804000F072FCB0F57A7FF8DB00210C
:100600004FF0804000F05EFC10BD10B5044602E0E3
:10061000FFF7E3FF641E002CFAD110BD10B50120D6
:1006200000F05AF838B31448007820B1012809D0F6
:10063000022815D10DE001200F490870C820FFF7EE
:10064000E4FF14E002200C490870C820FFF7DDFF2A
:100650000DE0012008490870C820FFF7D6FF06E02A
:10066000012005490870C820FFF7CFFF00BF00BF79
:10067000012000F02BF810BD4400002010B502202E
:1006800000F02AF8E8B100BF00BF00BF00BF00BF04
:10069000BFF34F8F00BF00BF00BF0A48006800F4DF
:1006A000E06009490843001D0649086000BF00BF1B
:1006B00000BFBFF34F8F00BF00BF00BF00BF00BF30
:1006C000FDE710BD0CED00E00000FA0501490860EF
:1006D0007047000014040140014600200022074B2F
:1006E0001B6803EA0102054B14331B680B4013B16E
:1006F0000AB1012000E00020704700000004014022
:10070000002123498279002A3AD00A4612680368F8
:100710009A430B461A600A1D126803689A430B1D20
:100720001A60027911440A6803681A430A60184A79
:100730000832126803689A43154B08331A601A1D71
:10074000126803689A43124B0C331A604279102ADC
:100750000ED11A1F126803681A430D4B08331A6032
:100760001A1D126803681A43094B0C331A600DE016
:100770000749427911440A6803681A430A6005E090
:10078000027911440A6803689A430A6070470000BE
:100790000004014030B500228B071C0F0F2303FA21
:1007A00004F20B4B8C1053F824309343084C8D10FB
:1007B00044F8253023468C1053F824308C07240F3E
:1007C00000FA04F42343024C8D1044F8253030BD68
:1007D000080001402DE9F0410246002500260020D6
:1007E00000230024002791F803C00CF00F0591F8B6
:1007F00003C00CF0100CBCF1000F03D091F802C044
:100800004CEA050591F800C0BCF1000F31D0146826
:1008100000202BE04FF0010C0CFA00F3B1F800C0FF
:100820000CEA03069E4220D183004FF00F0C0CFA15
:1008300003F7BC4305FA03FC4CEA040491F803C037
:10084000BCF1280F06D14FF0010C0CFA00FCC2F8E5
:1008500014C00AE091F803C0BCF1480F05D14FF075
:10086000010C0CFA00FCC2F810C0401C0828D1D3BF
:100870001460B1F800C0BCF1FF0F34DD54680020F3
:100880002EE000F1080C4FF0010808FA0CF3B1F863
:1008900000C00CEA03069E4221D183004FF00F0CEA
:1008A0000CFA03F7BC4305FA03FC4CEA040491F884
:1008B00003C0BCF1280F05D100F1080C08FA0CF8B0
:1008C000C2F8148091F803C0BCF1480F07D100F1C1
:1008D000080C4FF0010808FA0CF8C2F81080401C10
:1008E0000828CED35460BDE8F0810246002093680A
:1008F0000B400BB1012000E00020704741617047C0
:100900000161704710B504461CB101200449C8704C
:1009100002E000200249C87000F00AF810BD000093
:100920005400002010B5012000F080F810BD000038
:1009300010B500240EE00B480078401009490870FB
:100940000948005D20B10846007840F0800008703A
:10095000601CC4B2082CEEDB012202494E2000F0DC
:1009600000F910BD5C0000205400002010B53220BA
:10097000FFF74BFE00F066F9002404E000201B495D
:100980000855601CC4B2082CF8DBFFF7D1FF00202B
:1009900016490870FFF7CCFF002014494870FFF794
:1009A000C7FF032000F05AF80520FFF72EFE0320B2
:1009B00000F054F80120FFF728FE032000F04EF865
:1009C0000120FFF722FE022000F048F80120FFF787
:1009D0001CFE282000F02AF80C2000F027F80E203A
:1009E00000F024F8012000F021F810BD5400002090
:1009F00010B5C02000F01AF810BD10B5044607E08D
:100A0000207820B114F8010B00F004F900E000E0B8
:100A1000F6E700BF10BD000010B50423022201213B
:100A2000014800F03DFB10BD0008014010B5044630
:100A300000F0BAF8002008490870FFF779FF00209D
:100A400005494870FFF774FF201100F007F82046B1
:100A500000F004F810BD00005400002010B504465A
:100A600004F0080018B101201749C87102E0002005
:100A70001549C87104F0040018B1012012498871A9
:100A800002E000201049887104F0020018B1012032
:100A90000D49487102E000200B49487104F0010043
:100AA00018B101200849087102E0002006490871C8
:100AB000012005498870FFF73BFF0020024988703C
:100AC000FFF736FF10BD00005400002010B500F005
:100AD0008BFA00221921D020FFF75AFD00221A219B
:100AE000D020FFF755FD08221B21D020FFF750FD35
:100AF00002221C21D020FFF74BFD01226B21D020C8
:100B0000FFF746FD10BD000010B508231A02511072
:100B1000014800F0C5FA10BD000C01402DE9F0417C
:100B200007460D46164600F0CDFA384600F0F1FAB9
:100B300020B900F0DDFA0020BDE8F081002405E0D6
:100B4000012000F077FA2855601CC4B2701EA04244
:100B5000F6DC002000F06EFA285500F0C9FA0120FA
:100B6000EAE72DE9F04107460D46164600F0AAFADD
:100B7000384600F0CEFA20B900F0BAFA0020BDE8FD
:100B8000F081002409E0285D00F0C3FA18B900F0F4
:100B9000AFFA0020F3E7601CC4B2B442F3DB00F00C
:100BA000A7FA0120EBE7000008B5012018490871F9
:100BB00048718871C871FFF7BBFE002014490870A6
:100BC000FFF7B6FE012012494870FFF7B1FE00BFE3
:100BD00001200F498870FFF7ABFE012269464F20C4
:100BE000FFF79CFF00200A498870FFF7A1FE012053
:100BF00007498870FFF79CFE002005498870FFF7C1
:100C000097FE9DF8000000F008000028E0D108BD24
:100C10005400002010B50446FFF7C6FF0120084924
:100C20000870FFF785FE002005494870FFF780FE39
:100C30002011FFF713FF2046FFF710FF10BD000043
:100C40005400002010B500F0CFF910BD70B50021A0
:100C500000230F22C47804B3154C246804F4E06424
:100C6000C4F5E064210AC1F10403CA40447804FADF
:100C700003F184781440214309010E4C0678A155F4
:100C8000047804F01F050124AC4005786D11AD0017
:100C900005F1E025C5F8004109E0047804F01F05DE
:100CA0000124AC40044D0678761145F8264070BD0D
:100CB0000CED00E000E400E080E100E029B1064A2C
:100CC000D2690243044BDA6104E0034AD2698243E9
:100CD000014BDA61704700000010024029B1064A5A
:100CE00092690243044B9A6104E0034A9269824389
:100CF000014B9A61704700000010024010B5034894
:100D0000018803480068FFF7F9FD10BD4E00002080
:100D10004800002010B50348018803480068FFF729
:100D2000EFFD10BD4E0000204800002010B5034824
:100D3000018803480068FFF7E1FD10BD4C0000206A
:100D40004800002010B50348018803480068FFF7F9
:100D5000D7FD10BD4C0000204800002010B505480C
:100D6000018805480068FFF7C0FD08B1012010BDEB
:100D70000020FCE74C0000204800002010B500F0E7
:100D800001F810BD0CB500200190009033480068B8
:100D900040F480303149086000BF3048006800F4FA
:100DA000003000900198401C0190009818B90198FB
:100DB000B0F5A06FF1D12948006800F4003010B1FF
:100DC0000120009001E0002000900098012843D10C
:100DD0002348006840F01000214908600846006878
:100DE00020F0070008600846006840F00200086034
:100DF0001A484068194948600846406848600846F3
:100E0000406840F4806048600846406820F47C10E8
:100E100048600846406840F4E810486008460068AA
:100E200040F08070086000BF0C48006800F000705F
:100E30000028F9D00948406820F0030007494860BD
:100E40000846406840F00200486000BF0348406820
:100E500000F00C000828F9D10CBD00000010024081
:100E60000020024010B51348006840F0010011490D
:100E7000086008464068104908400E494860084626
:100E800000680E4908400B4908600846006820F4D5
:100E9000802008600846406820F4FE0048604FF457
:100EA0001F008860FFF76AFF4FF000600449086088
:100EB00010BD0000001002400000FFF8FFFFF6FE2A
:100EC00008ED00E021B1028842F00102028004E056
:100ED00002884FF6FE731A40028070470146888CE4
:100EE0007047818470470000002202881D4B9842A1
:100EF0000ED01D4B98420BD0B0F1804F08D01B4B49
:100F0000984205D01A4B984202D01A4B984204D10D
:100F10004FF68F731A404B881A43174B984207D0ED
:100F2000164B984204D04FF6FF431A40CB881A4321
:100F300002808B8883850B8803850A4B98420BD0EF
:100F4000094B984208D00E4B984205D00D4B984261
:100F500002D00D4B984201D10B7A03860123838284
:100F600070470000002C01400034014000040040A4
:100F700000080040000C0040001000400014004039
:100F80000040014000440140004801400EB50121ED
:100F90000846FFF793FE0020ADF802004FF6FF7001
:100FA000ADF804004720ADF8000069464FF08040DE
:100FB000FFF79AFF0EBD10B5044601218807FFF721
:100FC00081FF00214FF08040FFF78BFF00BF4FF003
:100FD0008040FFF783FFA042F9D300214FF080400B
:100FE000FFF770FF10BD000008B501210D48006833
:100FF000FFF774FE14208DF803000B4800880B499E
:1010000009880843ADF8000003208DF80200694606
:1010100007480068FFF7DEFBFFF794FEFFF77AFE54
:1010200008BD0000500000204C0000204E000020B1
:101030004800002070B50546FFF784FE0320FFF747
:10104000BAFF002615E06006040EFFF763FE0320DA
:10105000FFF7B1FFFFF782FE08B144F00104022060
:10106000FFF7A9FFFFF74AFE0520FFF7A4FF701C5A
:10107000C6B2082EE7DB15B1FFF758FE01E0FFF717
:1010800061FE0320FFF797FFFFF744FE0520FFF7FF
:1010900092FFFFF733FE0520FFF78DFF204670BD5E
:1010A00010B5044C2060044C2180044C2280044C78
:1010B000236010BD480000204C0000204E0000209E
:1010C0005000002010B5FFF725FE0320FFF773FF47
:1010D000FFF738FE0320FFF76EFFFFF727FE032020
:1010E000FFF769FFFFF70AFE0320FFF764FF10BD5B
:1010F00010B5FFF71BFE0320FFF75DFFFFF70AFEA9
:101100000320FFF758FFFFF71DFE0320FFF753FFF3
:1011100010BD70B50446002618E004F0800010B140
:10112000FFF710FE01E0FFF701FE0320FFF743FF8A
:10113000FFF7F0FD0520FFF73EFFFFF7DFFD022080
:10114000FFF739FF6006040E701CC6B2082EE4DB00
:10115000FFF7F8FD0320FFF72EFFFFF7DBFD03206D
:10116000FFF729FFFFF7FAFD08B1002500E0012590
:101170000220FFF720FFFFF7C1FD0520FFF71BFF4F
:10118000284670BD2DE9FF4707460C4615461E460A
:10119000DDE90D9ADDF8308001213846FFF79EFD2C
:1011A000A0B2ADF80C0028208DF80F0003208DF8B8
:1011B0000E0003A91448FFF70DFB01210846FFF7B5
:1011C0008DFDF1B2E8B2FFF7E5FACDF8048000201A
:1011D0008DF8080008208DF8090001208DF80A001C
:1011E00001A8FFF78DFA09F0FF008DF800008DF8D7
:1011F00001A000208DF8020001208DF80300684650
:10120000FFF724FDBDE8FF87000C01401FB5012159
:101210001020FFF763FD10208DF80F004FF44040C1
:10122000ADF80C0003208DF80E0003A9FD48FFF770
:10123000D1FAFFF7ABFE01200621CDE90001002322
:101240000246014602900820FFF79CFF002007217C
:1012500002220123CDE9002102901A460221082032
:10126000FFF790FFFFF7D8FBFFF780FB0120FFF7A8
:1012700049FBFFF757FBECA1ED48FEF7A9FFEC484F
:10128000FFF7BBFBFFF740FCFFF720FC2AE200F072
:1012900031FAE84908700846007801287DD100201D
:1012A000E54908604FF48041DE48FFF727FBE3483B
:1012B0000068401CE149086008460068012814D114
:1012C000FFF722FCFFF7CCF8DD490860084600680C
:1012D0000068DC490860DA4800684068DA4908605C
:1012E000D74800688068D9490860D4480068012858
:1012F00032DDD248006819282EDCFFF705FCFFF725
:10130000AFF8CF49086009680868CE49096800F05D
:1013100021FD04464FF0804100F08AFDC949086074
:10132000C74909684868C849096800F013FD0446C0
:101330004FF0804100F07CFDC3490860C049096856
:101340008868C249096800F005FD04464FF08041F5
:1013500000F06EFDBD490860B8480068192834DD0A
:10136000B6480068322830DAFFF7CEFBFFF778F88E
:10137000B349086009680868B549096800F0EAFCE3
:1013800004464FF0804100F053FDB1490860AC497C
:1013900009684868AF49096800E0FDE000F0DAFC40
:1013A00004464FF0804100F043FDAA490860A4497B
:1013B00009688868A849096800F0CCFC04464FF029
:1013C000804100F035FDA44908609C48006863280E
:1013D0007ED1002099490860FFF796FBFFF740F89F
:1013E00097490860096808689949096800F0B2FCE3
:1013F00004464FF0804100F01BFD9549086090497C
:10140000096848689349096800F0A4FC04464FF055
:10141000804100F00DFD8F4908608949096888689E
:101420008D49096800F096FC04464FF0804100F0B9
:10143000FFFC89490860854801688748006800F01A
:10144000EBFE8246814801688348006800F0E4FEB4
:101450008346514600F0E2FD81467B4801687D48A5
:10146000006800F0D9FE019077480168794800686B
:1014700000F0D2FE0090019900F0D0FD8246714844
:1014800001687348006800F0C7FE01906D4801686C
:101490006F48006800F0C0FE0090019900F0BEFDAA
:1014A0008346514600F056FC4946029000F052FC3B
:1014B000044600F023FC074600F022F9054600F040
:1014C00045F9664908606648006860B9654800E00B
:1014D00020E001686148006800F06CFE03D2012042
:1014E0005F49086016E05E480068012812D15E4836
:1014F00001685A48006800F05DFD0BD20020584991
:1015000008605A480068401C584908605448006800
:101510005749086057480068401C56490860012038
:10152000FFF773F853480068012810D1C1033D4804
:10153000FFF7E6F9FFF770FAFFF7F4F94B484EA111
:1015400002683B48FEF744FE3948FFF756FA49481F
:101550000068B0F57A7F11D14FF400413148FFF7B0
:10156000CDF9FFF759FAFFF7DDF9404842A10268CB
:101570002F48FEF72DFE2E48FFF73FFA3D48006842
:10158000B0F5FA6F07D14FF400412648FFF7B8F9DC
:10159000002038490860A5E02648007802287BD161
:1015A00081032048FFF7AAF923480068401C22491C
:1015B000086000202F4908600120FFF726F81E4828
:1015C0000068012819D181031648FFF799F9FFF740
:1015D00023FAFFF7A7F9254827A102681448FEF768
:1015E000F7FD1348FFF709FAFFF702FA26A11048A2
:1015F000FEF7EEFD0E48FFF700FA0F480068B0F561
:101600007A7F57D14FF480410648FFF779F9FFF709
:1016100003FAFFF787F9154817A102680448FEF797
:10162000D7FD3AE00010014042617420646175000A
:101630006800002008000020040000204000002076
:101640000C00002024000020280000202C00002096
:101650003000002034000020380000203C00002032
:10166000180000201C000020200000201000002096
:10167000140000200000002042756F632063686141
:101680006E203A202564000044756E674368756FCC
:101690006E675472696E68001AE01348FFF7ADF97F
:1016A000FFF7A6F9AFF220010F48FEF791FD0E48B3
:1016B000FFF7A3F90D480068B0F5FA6F12D14FF4A7
:1016C00080410B48FFF71AF900200849086009E03B
:1016D0004FF480410648FFF713F94FF400410448E6
:1016E000FFF70CF9D3E5000068000020040000209B
:1016F00000100140014800787047000044000020BD
:101700002DE9F04106460F4600F012FA041E0D4680
:1017100018BF0120284320F00040C0F17F6000F195
:10172000E040C00F0ED0301C18BF0120384320F01D
:101730000040C0F17F6000F1E040C00F04BF012015
:10174000FEF7D2FD20462946BDE8F08121F0004297
:10175000A2F16052B2F5801F01F0004328BFD2F120
:101760007F6C0BD95FEA001C43EAC20242EB507067
:1017700018BF704728BF20F001007047B2F5801FE6
:10178000BCBF184670474FEA410C1CF5001F02D23F
:10179000084600F00ABD70B500F075F90000008938
:1017A000FFF7F6BF4FF00040A0F580007047000043
:1017B0002DE9C04130B4DFF8A0C23CEA111418BFD3
:1017C0003CEA131400F0EC8081EA03051CEA1114D2
:1017D00044EAD57418BF1CEA131500F0C780A4EBC7
:1017E00005044FF0004545EAC12145EAC32341EA1B
:1017F000505143EA525304F17F74994204F5003486
:101800004FEAC0204FEAC22208BF904200F09C80FD
:101810004FEA13650FF24016765D4FEA134506FB5B
:1018200005F7C7F1807706FB07F74FEAD737A7FB25
:1018300003687642C8F58038A7FB06CE38BFA8F10A
:10184000010807FB08E64FF0000EA6FB028CE6FB42
:1018500003CEDCF1000CCEF1004E38BFAEF1010E2C
:10186000A6FB0C584FF000074FF00005E6FB0E8773
:10187000A1FB08C6A0FB07CE16EB0E0645F100053E
:10188000E1FB076515F1E04E7EBFA4F580345FEA09
:1018900046066D4116F1800745F100054FEA17270E
:1018A0004FEA066647EA0567A6F1DE46B6F1805FB5
:1018B0004FEA15251FD9384624F0010C05EBC471F9
:1018C000BCF1FE6F01EB0C1102D8F0BCBDE8008149
:1018D00024425CBF01F5801E9EEAC47F02D4F0BCA6
:1018E000BDE80081244238D4F0BCA1F1C041BDE87C
:1018F000004100F016B94FEAD22242EA43524FEAC1
:10190000D323A7FB02864FEAD02040EA415007FBD1
:1019100003661EEA0E0F4FEAD12105FB026658BF8F
:10192000A6EB0056B6EB00564FEA520E4EEAC37EC7
:1019300018EB0E0E56EB530EBDD518EB02085E41A8
:101940007F1C55F10005B6E74FF480154FF00007F6
:101950004FF000064FF00008ADE7F0BC4FF000007C
:1019600001F1C04101F00041BDE8008111EA0C1F06
:101970000CEA131500D00CE013EA0C1F00F02580D0
:101980004FF00000F0BC81EA030101F00041BDE826
:101990000081F0BCBDE8004181EA030100F0C1B85C
:1019A000F0BCBDE8004170B500F06DF8097EFC3E6A
:1019B00000F007B881EA03014FF0000001F0004198
:1019C000704781EA030100F0ACB8F0BCBDE800410B
:1019D0004FF0000021497047FFFDFBF9F7F5F4F2E5
:1019E000F0EEEDEBE9E8E6E4E3E1E0DEDDDBDAD8BA
:1019F000D7D5D4D3D1D0CFCDCCCBCAC8C7C6C5C418
:101A0000C2C1C0BFBEBDBCBBBAB9B8B7B6B5B4B32E
:101A1000B2B1B0AFAEADACABAAA9A8A8A7A6A5A419
:101A2000A3A3A2A1A09F9F9E9D9C9C9B9A999998DD
:101A30009797969595949393929191908F8F8E8E80
:101A40008D8C8C8B8B8A898988888787868585840D
:101A500084838382828181800000FF070000F87FF9
:101A6000B0FA80F310FA03F10AD0C3F11D0303F5B5
:101A700080634FEA41504FEA035202EBD121704795
:101A80004FF0000070470EF1020E2EF0030E5EF8CC
:101A9000046B364205D4012A43EB030515F5001FFC
:101AA00012D8012841EB010C1CF5001F0CD80ED1F7
:101AB0004FEAD17C15F5001F0CEB4C0C0CF1020C1D
:101AC00008BF4CEBD37C04E04FF0080C01E04FEA78
:101AD000D37C0CEB4C0526FA05F606F00706B6F1AA
:101AE000040C06D20EEB860CBDE870404CF0010CE5
:101AF0006047DFE80CF0090B02024FF000414FF0A5
:101B00000000A1F5002170BD19461046012851EBD7
:101B1000010418BFD4F5001484BF002001F0004177
:101B200070BD0808A0F500114FEA310170470000B0
:101B30002DE9F04101F5801CBCF5001FC0F2C38007
:101B40004FEA115C21EA0C510CF1FD0C41F48011BB
:101B50005FEA5C0C0CF5C07C01D3400049413DA418
:101B6000890241EA905187028E0E0A0CA45D04FBA3
:101B700004F602FB06F6C6F14046A4FB0662F60D2B
:101B800046EA422606FB06F4A4FB01235242C3F1B7
:101B9000404338BF5B1EA6FB02420024E6FB032441
:101BA000D20B42EA4446A6FB0623A1FB02E2A3FBBA
:101BB00007E4A4184FF0000252F10002E3FB0142D7
:101BC0006442C2F1404E38BFAEF1010EA6FB0423C1
:101BD0004FF00002E6FB0E32A2FB03464FF000047A
:101BE000B61954F10004E2FB0264A1FB06E6A4FB73
:101BF00007E816EB08064FF0000858F10008E4FB70
:101C000001687642C8F1405838BFA8F10108A2FB2C
:101C100006E4A3FB08E52D194FF0000454F100047D
:101C2000E2FB0854A1FB05E6A7FB04E818EB060855
:101C30004FF0000656F10006E1FB048618F120057E
:101C400056F10006A809A8F11B08B10908F03F08E1
:101C5000B8F10A0F40EA86601CD901EB0C51BDE8CF
:101C6000F08100BFFCF5EEE8E2DDD8D3CFCBC7C3EF
:101C7000C0BDB9B6B4B1AEACA9A7A5A3A19F9D9BA9
:101C80009A9896959392908F8D8C8B89888786856C
:101C900084838281A0FB006800FB01F208EB42080C
:101CA000B8EB872807D5341858EB0104D5D5401C6C
:101CB00051F10001D1E7341A78EB0104CDD4401E74
:101CC00071F10001C9E75FEA4C0C5FEA9C5C0DD141
:101CD00005D34FF0000001F00041BDE8F081BDE800
:101CE000F04170B5FFF7CFFE6DDBFFBEBDE8F04100
:101CF0004FF00000004970470000F87F43004FEAB2
:101D0000D30C4FEA3C0C43401FBF40070CF160511D
:101D100013F0FE4F70471CF0006F03D100200CF051
:101D2000004170470CF0004343EA507010B540EAA0
:101D3000CC0000F0F4F900BF000000924FEA00016F
:101D4000FFF7EFBE4FF000414FF00000A1F500217A
:101D50007047000090EA010F48BF81F0004100F198
:101D60006282421A3CBF801A89184FEAD0524FF063
:101D70007F4C1CEA410FA2EBD15318BF9CEA026FC3
:101D800000F03B804FF0004C4CEA00204CEA01216F
:101D900021FA03FC10EB0C0C1ED202F1FF325FEAB9
:101DA0001C2040EBC25038BF70471CF07F0F4FEA39
:101DB000400C18BFBCF17F4F38BF7047C3F1200300
:101DC000994008BF20F00100BCF17F4F38BF704739
:101DD000A0F1C04000F0E9B94FEA3C00000A40EB36
:101DE000C25028BF1CF0FF0F4FEA400CE6D018BFCE
:101DF000BCF17F4F38BF7047EAE79CEA026F05D01D
:101E000010EA5C0F08BF00F00040704710B500F00A
:101E100086F900BF64FBBE3E401058BFC0F1404091
:101E2000491058BFC1F140418142EFF30080704733
:101E30004FF47F0C1CEAD0121EBF1CEAD11392EAA9
:101E40000C0F93EA0C0F00F0858090EA010F48BF59
:101E500042F4807240F4000C41F400002CF07F4109
:101E600020F07F4000B58142A2EB03020FF2081C74
:101E7000ACEB504EC0F100009EF800E04FEA4E0E71
:101E800000FB0EFC38BF49004FEA2C1C02F5FA0299
:101E90000CFB0EF34FEACE1E4FEA112C4FEAC12184
:101EA0000EEB635E42EB22420EFB0CFC4FEA1C532E
:101EB00000FB03114FEA112C4FEA01310EFB0CFC21
:101EC0004FEADC4C00FB0C11C14228BF09184CEB57
:101ED00003335DF804EB10EB410143EBC250B2F564
:101EE0007C0F38BF704729D512F0F00F1CBF00F1EE
:101EF000C04000F00040704700818283848586875F
:101F000088898B8C8D8E8F919293959697999A9CB8
:101F10009D9FA0A2A3A5A7A8AAACAEB0B2B3B5B727
:101F2000B9BCBEC0C2C5C7C9CCCED1D4D7D9DCDFFD
:101F3000E2E6E9ECF0F3F7FAFE0000004FEA400CAD
:101F40000CF1807CBCF17E4F28BF7047B0F1C040DF
:101F500000F02BB990EA010F0CEAD11348BF42F40C
:101F60008072624538BF634507D213F47F0F16D0E5
:101F700080EA010000F00040704710B500F0CFF893
:101F8000097EFC3E00F005B880EA010000F0004048
:101F9000704780EA010000F0004000F006B912F43A
:101FA0007F0F04BF0248704780EA010000F0FDB8CF
:101FB0000000C07F50EA010C00F113801CF5000FF7
:101FC00058BFBCF5000F01D48842704707D710F501
:101FD000000F58BF11F5000F15D488427047894291
:101FE00070471CF5000F04D5BCF5000FF7D58142F2
:101FF00070474FF0807C1CEB400F38BF1CEB410F4B
:1020000001D28142704710B500F089F8922449004E
:102010004FF000504FF08051FFF7FEBE4FF47F0CA1
:102020001CEAD0121EBF1CEAD11392EA0C0F93EAED
:102030000C0F00F0478090EA010F48BF42F4807215
:102040004FF0004C4CEA00204CEA012102EB030265
:10205000A0FB0113A2F50002002918BF43F0010301
:102060005B0028BF4FEA330342EB22425FEA132CA6
:102070004CEBC2502EBFBCEB436FB2F57C0F7047E8
:102080004FEA036CBCF1004F08BF20F00100B2F52D
:102090007C0F38BF70470BD582F0FF0212F5803FEE
:1020A000C8BF704700F1C040D8BF00F00040704783
:1020B00000F5000C5FEA4C0C48BF7047B0F1C0401F
:1020C00000F073B890EA010F0CEAD11348BF42F454
:1020D0008072624538BF634504D280EA010000F097
:1020E0000040704710B500F01AF800BF8900013EAB
:1020F00000F007B800F009B85FEA410C5FEA1C6C19
:1021000008D080EA010000F050B85FEA400C5FEAB6
:102110001C6CF6D14FF00040A0F5800070470EF126
:10212000020E2EF0030E5EF8044B244204D44FEA54
:102130004102B2F17F4F11D84FEA4003B3F17F4F14
:102140000CD80ED14FEAD07CB2F17F4F0CEB4C0C87
:102150000CF1020C08BF4CEBD17C04E04FF0080CF2
:1021600001E04FEAD17C0CEB4C0324FA03F404F0B9
:102170000704B4F1040C06D20EEB840CBDE8104049
:102180004CF0010C6047DFE80CF0070802024FF04A
:102190000040A0F5800010BD0846420018BFD2F1F3
:1021A000807288BF00F0004010BDFF2141EAD0508E
:1021B000C005704751EA000C00F113801CF5000FB8
:1021C00058BFBCF5000F01D48142704707D711F505
:1021D000000F58BF10F5000F15D481427047894297
:1021E00070471CF5000F04D5BCF5000FF7D58842E9
:1021F00070474FF0807C1CEB410F38BF1CEB400F49
:1022000001D28842704780EA010081EA000180EA39
:102210000100FFF7F8BE000090EA010F48BF81F00F
:1022200000413FF59EAD421A04D882F00042A0EB77
:10223000020011444FEAD0524FF07F4C1CEA410F8C
:10224000A2EBD15318BF9CEA026F4AD04FF0004C6A
:102250004CEA00204CEA012121FA03FCB0EB0C0C03
:102260000FD412F0FE0F36D05FEA4C001DD50012DD
:1022700040EBC25038BF70471CF03F0F18BF70478B
:102280000BE0A2F101025FEA1C2040EBC25038BF14
:1022900070471CF07F0F18BF7047C3F120039940AF
:1022A00014BF401E20F00100704780084FEA12233F
:1022B00008BF7047B0FA80FCA2EB0C02CCF1280CEE
:1022C00060FA0CF093EA122F04BF00EBC250704783
:1022D0004FEAC3707047130A5FEADC1008BF70470B
:1022E000F6E79CEA026F04D010EA5C0F08BF0020FA
:1022F000704710B5FFF713FF40DFF63E81F0004056
:10230000704700002423000800000020680000003F
:10231000280100088C2300086800002090060000B7
:102320004401000800000000000000000000000060
:10233000000000000000000000000000000000009D
:1023400000004040CDCCCC3D00000000000000006B
:10235000000000000000000000000000000000007D
:10236000000000000000000000000000000000006D
:10237000000000000000000000000000000000005D
:0C23800000000000000000000000000051
:04000005080001915D
:00000001FF
